{
  "contractName": "slotMachine",
  "abi": [
    {
      "constant": true,
      "inputs": [],
      "name": "contractBalance",
      "outputs": [
        {
          "name": "",
          "type": "uint256"
        }
      ],
      "payable": false,
      "stateMutability": "view",
      "type": "function"
    },
    {
      "inputs": [],
      "payable": false,
      "stateMutability": "nonpayable",
      "type": "constructor"
    },
    {
      "anonymous": false,
      "inputs": [
        {
          "indexed": false,
          "name": "Contract",
          "type": "address"
        },
        {
          "indexed": false,
          "name": "Player",
          "type": "address"
        },
        {
          "indexed": false,
          "name": "Amount",
          "type": "uint256"
        }
      ],
      "name": "PlayerDeposit",
      "type": "event"
    },
    {
      "constant": false,
      "inputs": [],
      "name": "payContract",
      "outputs": [
        {
          "name": "",
          "type": "string"
        }
      ],
      "payable": true,
      "stateMutability": "payable",
      "type": "function"
    },
    {
      "constant": false,
      "inputs": [],
      "name": "start",
      "outputs": [
        {
          "name": "",
          "type": "bool"
        },
        {
          "name": "",
          "type": "uint8[]"
        }
      ],
      "payable": false,
      "stateMutability": "nonpayable",
      "type": "function"
    }
  ],
  "bytecode": "0x60806040526103e860035534801561001657600080fd5b506001600460006101000a81548160ff021916908360ff16021790555060006002819055506109048061004a6000396000f3fe6080604052600436106100345760003560e01c80638b7afe2e14610039578063be9a655514610064578063ecb0b862146100db575b600080fd5b34801561004557600080fd5b5061004e61015e565b6040518082815260200191505060405180910390f35b34801561007057600080fd5b50610079610164565b604051808315151515815260200180602001828103825283818151815260200191508051906020019060200280838360005b838110156100c65780820151818401526020810190506100ab565b50505050905001935050505060405180910390f35b6100e36103d0565b6040518080602001828103825283818151815260200191508051906020019080838360005b83811015610123578082015181840152602081019050610108565b50505050905090810190601f1680156101505780820380516001836020036101000a031916815260200191505b509250505060405180910390f35b60015481565b600060606000809054906101000a900473ffffffffffffffffffffffffffffffffffffffff1673ffffffffffffffffffffffffffffffffffffffff163373ffffffffffffffffffffffffffffffffffffffff161461020d576040517f08c379a00000000000000000000000000000000000000000000000000000000081526004018080602001828103825260228152602001806108b76022913960400191505060405180910390fd5b6060600360405190808252806020026020018201604052801561023f5781602001602082028038833980820191505090505b509050600080905060006002541161025657600080fd5b6000610270600460009054906101000a900460ff16610629565b9050808360008151811061028057fe5b602002602001019060ff16908160ff16815250506001600460008282829054906101000a900460ff160192506101000a81548160ff021916908360ff16021790555060006102dc600460009054906101000a900460ff16610629565b905080846001815181106102ec57fe5b602002602001019060ff16908160ff16815250506001600460008282829054906101000a900460ff160192506101000a81548160ff021916908360ff1602179055506000610348600460009054906101000a900460ff16610629565b9050808560028151811061035857fe5b602002602001019060ff16908160ff16815250506001600460008282829054906101000a900460ff160192506101000a81548160ff021916908360ff1602179055508160ff168360ff161480156103b457508060ff168260ff16145b156103c7576103c16106a4565b50600193505b50505050509091565b60606003543460025401111561044e576040517f08c379a000000000000000000000000000000000000000000000000000000000815260040180806020018281038252600f8152602001807f546f6f206d75636820457468657221000000000000000000000000000000000081525060200191505060405180910390fd5b34600260008282540192505081905550336000806101000a81548173ffffffffffffffffffffffffffffffffffffffff021916908373ffffffffffffffffffffffffffffffffffffffff1602179055507f8543421172354d1c957fb6ac1c05fc1d9b1ec4fdecbb751a836394a27357c898303334604051808473ffffffffffffffffffffffffffffffffffffffff1673ffffffffffffffffffffffffffffffffffffffff1681526020018373ffffffffffffffffffffffffffffffffffffffff1673ffffffffffffffffffffffffffffffffffffffff168152602001828152602001935050505060405180910390a16040518060400160405280600e81526020017f436f6e747261637420506169642e00000000000000000000000000000000000081525060059080519060200190610588929190610811565b5060058054600181600116156101000203166002900480601f01602080910402602001604051908101604052809291908181526020018280546001816001161561010002031660029004801561061f5780601f106105f45761010080835404028352916020019161061f565b820191906000526020600020905b81548152906001019060200180831161060257829003601f168201915b5050505050905090565b600060b38260ff161115610654576001600460006101000a81548160ff021916908360ff1602179055505b600a600143034083604051602001808381526020018260ff1660ff1660f81b8152600101925050506040516020818303038152906040528051906020012060001c8161069c57fe5b069050919050565b60606000600280540290508060015410156106bf5760015490505b3373ffffffffffffffffffffffffffffffffffffffff166108fc829081150290604051600060405180830381858888f19350505050158015610705573d6000803e3d6000fd5b503073ffffffffffffffffffffffffffffffffffffffff16316001819055506040518060400160405280601681526020017f202d2d3e2047657420706169642c2077696e6e657221000000000000000000008152506005908051906020019061076f929190610811565b5060058054600181600116156101000203166002900480601f0160208091040260200160405190810160405280929190818152602001828054600181600116156101000203166002900480156108065780601f106107db57610100808354040283529160200191610806565b820191906000526020600020905b8154815290600101906020018083116107e957829003601f168201915b505050505091505090565b828054600181600116156101000203166002900490600052602060002090601f016020900481019282601f1061085257805160ff1916838001178555610880565b82800160010185558215610880579182015b8281111561087f578251825591602001919060010190610864565b5b50905061088d9190610891565b5090565b6108b391905b808211156108af576000816000905550600101610897565b5090565b9056fe4f6e6c7920506c617965722063616e2075736520746869732066756e6374696f6e2ea165627a7a723058208638134565c60ade3edf804fd91ba64063ff8563f0fc7c101cb1172b936cfcd80029",
  "source": "pragma solidity ^0.5.8;\r\n\r\ncontract slotMachine {\r\n\r\n\r\n    address private _player;\r\n \r\n    uint256 public contractBalance;\r\n    uint256 private _userBalance;\r\n    uint256 private _ethLimit = 1000 wei;\r\n    uint8 private _randNonce;\r\n\r\n    string private _dMsg;\r\n\r\n    ///-----------event logging-------------///\r\n    event PlayerDeposit(address Contract, address Player, uint256 Amount);\r\n\r\n\r\n    ///***********Modifiers***********///\r\n\r\n    \r\n    //make sure address is Player\r\n    modifier isPlayer() {\r\n        require(msg.sender == _player, \"Only Player can use this function.\");\r\n        _;\r\n    }\r\n\r\n    ///******constructor********///\r\n    constructor() public {\r\n        _randNonce = 1;\r\n        _userBalance = 0;\r\n    }   \r\n    function payContract() public payable returns (string memory) {\r\n        \r\n        \r\n        //make sure contract cannot accept more than ether limit\r\n        require((_userBalance + msg.value) <= _ethLimit, \"Too much Ether!\");\r\n        \r\n        _userBalance += msg.value;\r\n        \r\n        //Register player's address\r\n        _player = msg.sender;\r\n        \r\n        //log event    \r\n        emit PlayerDeposit(address(this), msg.sender, msg.value);\r\n        \r\n        _dMsg = \"Contract Paid.\";\r\n            \r\n        return _dMsg;\r\n    }\r\n\r\n    function payForIt() internal returns (string memory) {\r\n        \r\n        uint256 winBalance = _userBalance * 2;\r\n        if(contractBalance < winBalance){\r\n            winBalance = contractBalance;\r\n        }\r\n        msg.sender.transfer(winBalance); \r\n        contractBalance = address(this).balance;\r\n        _dMsg = \" --> Get paid, winner!\";\r\n        return _dMsg;\r\n    }\r\n    \r\n    ///******Start up machine********///\r\n    function start() isPlayer public returns (bool, uint8[] memory) {\r\n        //Check whether user bet any ether\r\n        uint8[] memory randomNumberList = new uint8[](3);\r\n        bool win = false;\r\n        require(_userBalance > 0);\r\n\r\n        //generate three output of slot machine\r\n        uint8 randomValue1 = randomNumber(_randNonce);\r\n        randomNumberList[0] = randomValue1;\r\n        _randNonce += 1;\r\n        uint8 randomValue2 = randomNumber(_randNonce);\r\n        randomNumberList[1] = randomValue2;\r\n        _randNonce += 1;\r\n        uint8 randomValue3 = randomNumber(_randNonce);\r\n        randomNumberList[2] = randomValue3;\r\n        _randNonce += 1;\r\n\r\n        if(randomValue1 == randomValue2 && randomValue2 == randomValue3)\r\n        {    \r\n            payForIt();\r\n            win = true;        \r\n        }\r\n        \r\n    }\r\n    ///*********************Generate Random number************************///\r\n    function randomNumber(uint8 _nonce) internal returns (uint8) {\r\n        //reset nonce when reach a certain number to make it unpredictable\r\n        if(_nonce > 179) {\r\n            _randNonce = 1;\r\n        }\r\n        \r\n        return uint8(uint(keccak256(abi.encodePacked(blockhash(block.number - 1), _nonce)))%10); // 1-10\r\n    }\r\n\r\n\r\n}",
  "sourcePath": "C:/Users/HP/Desktop/gamblegamble/contracts/slotMachine.sol",
  "compiler": {
    "name": "solc",
    "version": "0.5.8+commit.23d335f2.Emscripten.clang"
  },
  "schemaVersion": "3.0.10",
  "updatedAt": "2019-06-04T08:11:24.337Z",
  "devdoc": {
    "methods": {}
  },
  "userdoc": {
    "methods": {
      "constructor": "******constructor********///",
      "start()": {
        "notice": "******Start up machine********///"
      }
    }
  }
}