{
  "contractName": "slotMachine",
  "abi": [
    {
      "constant": true,
      "inputs": [],
      "name": "contractBalance",
      "outputs": [
        {
          "name": "",
          "type": "uint256"
        }
      ],
      "payable": false,
      "stateMutability": "view",
      "type": "function"
    },
    {
      "inputs": [],
      "payable": true,
      "stateMutability": "payable",
      "type": "constructor"
    },
    {
      "anonymous": false,
      "inputs": [
        {
          "indexed": false,
          "name": "Contract",
          "type": "address"
        },
        {
          "indexed": false,
          "name": "Player",
          "type": "address"
        },
        {
          "indexed": false,
          "name": "Amount",
          "type": "uint256"
        }
      ],
      "name": "PlayerDeposit",
      "type": "event"
    },
    {
      "constant": false,
      "inputs": [],
      "name": "payContract",
      "outputs": [
        {
          "name": "",
          "type": "uint256"
        }
      ],
      "payable": true,
      "stateMutability": "payable",
      "type": "function"
    },
    {
      "constant": false,
      "inputs": [],
      "name": "start",
      "outputs": [],
      "payable": false,
      "stateMutability": "nonpayable",
      "type": "function"
    },
    {
      "constant": false,
      "inputs": [
        {
          "name": "_tempWinner",
          "type": "address"
        }
      ],
      "name": "checkWin",
      "outputs": [
        {
          "name": "",
          "type": "bool"
        }
      ],
      "payable": false,
      "stateMutability": "nonpayable",
      "type": "function"
    },
    {
      "constant": false,
      "inputs": [
        {
          "name": "_winStatus",
          "type": "bool"
        },
        {
          "name": "_winner",
          "type": "address"
        }
      ],
      "name": "payForIt",
      "outputs": [],
      "payable": false,
      "stateMutability": "nonpayable",
      "type": "function"
    },
    {
      "constant": true,
      "inputs": [
        {
          "name": "_player",
          "type": "address"
        }
      ],
      "name": "displayNumber",
      "outputs": [
        {
          "name": "",
          "type": "uint256"
        },
        {
          "name": "",
          "type": "uint256"
        },
        {
          "name": "",
          "type": "uint256"
        }
      ],
      "payable": false,
      "stateMutability": "view",
      "type": "function"
    }
  ],
  "bytecode": "0x6080604052620186a0600255600160038190555060006001819055503073ffffffffffffffffffffffffffffffffffffffff1631600081905550610930806100486000396000f3fe6080604052600436106100555760003560e01c80631d0d3df71461005a5780638b7afe2e146100b7578063be9a6555146100e2578063ce45100e146100f9578063ced7d6ba1461016c578063ecb0b862146101d5575b600080fd5b34801561006657600080fd5b506100b56004803603604081101561007d57600080fd5b81019080803515159060200190929190803573ffffffffffffffffffffffffffffffffffffffff1690602001909291905050506101f3565b005b3480156100c357600080fd5b506100cc610271565b6040518082815260200191505060405180910390f35b3480156100ee57600080fd5b506100f7610277565b005b34801561010557600080fd5b506101486004803603602081101561011c57600080fd5b81019080803573ffffffffffffffffffffffffffffffffffffffff169060200190929190505050610518565b60405180848152602001838152602001828152602001935050505060405180910390f35b34801561017857600080fd5b506101bb6004803603602081101561018f57600080fd5b81019080803573ffffffffffffffffffffffffffffffffffffffff1690602001909291905050506105ea565b604051808215151515815260200191505060405180910390f35b6101dd61076c565b6040518082815260200191505060405180910390f35b811561026d576000670de0b6b3a764000090508173ffffffffffffffffffffffffffffffffffffffff166108fc829081150290604051600060405180830381858888f1935050505015801561024c573d6000803e3d6000fd5b503073ffffffffffffffffffffffffffffffffffffffff1631600081905550505b5050565b60005481565b60011515600460003373ffffffffffffffffffffffffffffffffffffffff1673ffffffffffffffffffffffffffffffffffffffff16815260200190815260200160002060009054906101000a900460ff161515146102d457600080fd5b60b360035411156102e85760006003819055505b6000600154116102f757600080fd5b600a6001420360035460405160200180838152602001828152602001925050506040516020818303038152906040528051906020012060001c8161033757fe5b06600560003373ffffffffffffffffffffffffffffffffffffffff1673ffffffffffffffffffffffffffffffffffffffff168152602001908152602001600020819055506001600360008282540192505081905550600a6001420360035460405160200180838152602001828152602001925050506040516020818303038152906040528051906020012060001c816103cc57fe5b06600660003373ffffffffffffffffffffffffffffffffffffffff1673ffffffffffffffffffffffffffffffffffffffff168152602001908152602001600020819055506001600360008282540192505081905550600a6001420360035460405160200180838152602001828152602001925050506040516020818303038152906040528051906020012060001c8161046157fe5b06600760003373ffffffffffffffffffffffffffffffffffffffff1673ffffffffffffffffffffffffffffffffffffffff1681526020019081526020016000208190555060016003600082825401925050819055506000600460003373ffffffffffffffffffffffffffffffffffffffff1673ffffffffffffffffffffffffffffffffffffffff16815260200190815260200160002060006101000a81548160ff0219169083151502179055506000600181905550565b6000806000600560008573ffffffffffffffffffffffffffffffffffffffff1673ffffffffffffffffffffffffffffffffffffffff16815260200190815260200160002054600660008673ffffffffffffffffffffffffffffffffffffffff1673ffffffffffffffffffffffffffffffffffffffff16815260200190815260200160002054600760008773ffffffffffffffffffffffffffffffffffffffff1673ffffffffffffffffffffffffffffffffffffffff168152602001908152602001600020549250925092509193909250565b60008060009050600660008473ffffffffffffffffffffffffffffffffffffffff1673ffffffffffffffffffffffffffffffffffffffff16815260200190815260200160002054600560008573ffffffffffffffffffffffffffffffffffffffff1673ffffffffffffffffffffffffffffffffffffffff168152602001908152602001600020541480156106fb5750600760008473ffffffffffffffffffffffffffffffffffffffff1673ffffffffffffffffffffffffffffffffffffffff16815260200190815260200160002054600660008573ffffffffffffffffffffffffffffffffffffffff1673ffffffffffffffffffffffffffffffffffffffff16815260200190815260200160002054145b1561075e57600190506000670de0b6b3a764000090508373ffffffffffffffffffffffffffffffffffffffff166108fc829081150290604051600060405180830381858888f19350505050158015610757573d6000803e3d6000fd5b5050610763565b600090505b80915050919050565b60006002543411156107e6576040517f08c379a000000000000000000000000000000000000000000000000000000000815260040180806020018281038252600f8152602001807f546f6f206d75636820457468657221000000000000000000000000000000000081525060200191505060405180910390fd5b346001600082825401925050819055503460008082825401925050819055506001600460003373ffffffffffffffffffffffffffffffffffffffff1673ffffffffffffffffffffffffffffffffffffffff16815260200190815260200160002060006101000a81548160ff0219169083151502179055507f8543421172354d1c957fb6ac1c05fc1d9b1ec4fdecbb751a836394a27357c898303334604051808473ffffffffffffffffffffffffffffffffffffffff1673ffffffffffffffffffffffffffffffffffffffff1681526020018373ffffffffffffffffffffffffffffffffffffffff1673ffffffffffffffffffffffffffffffffffffffff168152602001828152602001935050505060405180910390a160005490509056fea165627a7a72305820c713fc01b882d3e9d92789ef02fac9b621c6a8fa33475df300b3758e6bf047930029",
  "source": "pragma solidity ^0.5.8;\r\n\r\ncontract slotMachine {\r\n\r\n\r\n    // private _player;\r\n \r\n    uint256 public contractBalance;\r\n    uint256 private _userBalance;\r\n    uint256 private _ethLimit = 100000 wei;\r\n    uint256 private _randNonce;\r\n    mapping(address=>bool) players;\r\n    mapping(address=>uint256) number1;\r\n    mapping(address=>uint256) number2;\r\n    mapping(address=>uint256) number3;\r\n\r\n\r\n\r\n\r\n    ///-----------event logging-------------///\r\n    event PlayerDeposit(address Contract, address Player, uint256 Amount);\r\n\r\n\r\n    ///***********Modifiers***********///\r\n\r\n    \r\n    //make sure address is Player\r\n    modifier isPlayer() {\r\n        require(players[msg.sender] == true);\r\n        _;\r\n    }\r\n\r\n    ///******constructor********///\r\n    constructor() payable public  {\r\n        _randNonce = 1;\r\n        _userBalance = 0;\r\n        contractBalance = address(this).balance;\r\n    }   \r\n    function payContract() public payable returns (uint){//\r\n        \r\n        \r\n        //make sure contract cannot accept more than ether limit\r\n        require((msg.value) <= _ethLimit, \"Too much Ether!\");\r\n        \r\n        _userBalance += msg.value;\r\n        contractBalance += msg.value;\r\n        //Register player's address\r\n        players[msg.sender] = true;\r\n        \r\n        //log event    \r\n        emit PlayerDeposit(address(this), msg.sender, msg.value);\r\n        return contractBalance;\r\n    }\r\n\r\n    \r\n    ///******Start up machine********///\r\n    function start() isPlayer external {//\r\n        //Check whether user bet any ether\r\n        if (_randNonce > 179){\r\n            _randNonce = 0;\r\n        }\r\n        require(_userBalance > 0);\r\n\r\n        //generate three output of slot machine\r\n        number1[msg.sender] = uint(keccak256(abi.encodePacked(block.timestamp - 1 , _randNonce)))%10;\r\n        \r\n        _randNonce += 1;\r\n        number2[msg.sender] = uint(keccak256(abi.encodePacked(block.timestamp - 1 , _randNonce)))%10;\r\n        \r\n        _randNonce += 1;\r\n        number3[msg.sender] = uint(keccak256(abi.encodePacked(block.timestamp - 1 , _randNonce)))%10;\r\n        \r\n        _randNonce += 1;\r\n        players[msg.sender] = false;\r\n        _userBalance = 0;\r\n    }\r\n    function checkWin(address payable _tempWinner) public returns (bool){//\r\n        bool win = false;\r\n        if (number1[_tempWinner] == number2[_tempWinner] && number2[_tempWinner] == number3[_tempWinner]){\r\n            win = true;\r\n            uint256 winBalance = 1 ether;\r\n            _tempWinner.transfer(winBalance); \r\n        }\r\n        else{\r\n            win = false;\r\n            \r\n        }\r\n        return win;\r\n    }\r\n    function payForIt(bool _winStatus, address payable _winner) external {\r\n        if (_winStatus) {\r\n            uint256 winBalance = 1 ether;\r\n            _winner.transfer(winBalance); \r\n            contractBalance = address(this).balance;\r\n        }\r\n    }\r\n    function displayNumber(address _player) external view returns(uint256, uint256, uint256) {//\r\n        return (number1[_player], number2[_player], number3[_player]);\r\n    }\r\n}",
  "sourcePath": "C:/Users/HP/Desktop/gamblegamble/slotMachine/contracts/slotMachine.sol",
  "compiler": {
    "name": "solc",
    "version": "0.5.8+commit.23d335f2.Emscripten.clang"
  },
  "schemaVersion": "3.0.11",
  "updatedAt": "2019-06-21T13:12:11.817Z",
  "devdoc": {
    "methods": {}
  },
  "userdoc": {
    "methods": {
      "constructor": "******constructor********///",
      "start()": {
        "notice": "******Start up machine********///"
      }
    }
  }
}